:100000000C942A000C9447000C9447000C94470071
:100010000C9447000C9447000C9447000C94470044
:100020000C9447000C9447000C9447000C94470034
:100030000C9447000C9447000C9447000C94470024
:100040000C9447000C9447000C9447000C94470014
:100050000C94470011241FBECFE5D4E0DEBFCDBF16
:1000600010E0A0E6B0E0E2E5F7E002C005900D92F6
:10007000A23EB107D9F710E0A2EEB0E001C01D9298
:10008000A23EB107E1F70E94E9010C94A7030C948A
:1000900000000F931F93DC01CB012AB128612AB91C
:1000A00020B5266820BD880F991FAA1FBB1F880F87
:1000B000991FAA1FBB1F9C01AD01220F331F441FB4
:1000C000551F220F331F441F551F60E072E18AE75E
:1000D00090E00E94850389019A01802F815089B99F
:1000E0000150104020403040012F122F232F332782
:1000F00000BD1F910F9108958BB18CB108955D9B48
:10010000FECF8CB90895CF93DF93EC0188818823CB
:1001100031F021960E947F0089918823D9F7DF91E1
:10012000CF9108958BBBC098C198C29A8FE19EE48D
:100130000197F1F700C00000C2988FE19EE401979B
:10014000F1F700C0000008958BBBC09AC198C29A15
:100150008FE19EE40197F1F700C00000C2988FE1A3
:100160009EE40197F1F700C00000089588E30E9423
:1001700092008EE00E94920080E80E94920086E049
:100180000E94920081E00E94920008950F931F93B5
:10019000CF93DF93082F192FC0E0D0E00CC00E944E
:1001A000A4002196C031D10531F480EC0E94920068
:1001B00086E00E949200F80181918F01882379F7EF
:1001C000DF91CF911F910F910895CF93DF93CDB71A
:1001D000DEB760970FB6F894DEBF0FBECDBFDE016D
:1001E0001196E0E6F0E020E101900D922150E1F758
:1001F0002FEF25BB20EF24BB2FEE25BB23B32F70A1
:100200002F3061F04FEF50E762E0415050406040C6
:10021000E1F700C0000080E090E036C02FED25BB84
:1002200023B32F702F3061F06FEF70E782E06150E1
:1002300070408040E1F700C0000081E090E024C001
:100240002FEB25BB23B32F702F3061F08FEF90E79A
:10025000A2E081509040A040E1F700C0000082E0A1
:1002600090E012C02FE725BB23B32F702F3009F485
:100270005DC04FEF50E762E0415050406040E1F711
:1002800000C0000083E090E04FEF50E762E0415093
:1002900050406040E1F700C000002E3081F42FEFA5
:1002A00030E742E0215030404040E1F700C000001C
:1002B0008C0F9D1FDC0111968C91119741C02D3040
:1002C00081F42FEF30E742E0215030404040E1F729
:1002D00000C000008C0F9D1FDC0115968C911597B6
:1002E0002FC02B3081F42FEF30E742E02150304017
:1002F0004040E1F700C000008C0F9D1FDC01199603
:100300008C9119971DC0273081F42FEF30E742E020
:10031000215030404040E1F700C000008C0F9D1F8D
:10032000DC011D968C911D970BC00AC04FEF50E762
:1003300062E0415050406040E1F700C00000D1CF82
:1003400060960FB6F894DEBF0FBECDBFDF91CF91A0
:10035000089587B38F7987BBBF9A80E48DB90895DC
:10036000779BFECF8FB1089525ED30E040E050E05F
:1003700062ED70E007C04F5F5F4F2C5F3F4F44302E
:100380005105D9F0D901F901339790819817C1F03F
:10039000FA01EE0FFF1FEE0FFF1FE60FF71F91810F
:1003A000981789F0F90131979081981779F09C910D
:1003B000981709F781E090E0089580E090E00895B3
:1003C00081E090E0089581E090E0089581E090E080
:1003D0000895CF93DF93CDB7DEB7C254D0400FB6A8
:1003E000F894DEBF0FBECDBF80EF84BB8FEF85BB1F
:1003F00081E494E5A0E0B0E08B839C83AD83BE8371
:10040000FE01379686E0DF011D928A95E9F780911B
:100410009E0090919F009E878D87FE013F9688E009
:10042000DF011D928A95E9F7DE015796E8EAF0E0D0
:100430008AE001900D928150E1F719A2DE019296B7
:10044000E3EBF0E089E001900D928150E1F71CA60A
:100450001BA6DE019D96EEEBF0E085E001900D928B
:100460008150E1F7FE01F2968FE0DF011D928A953F
:10047000E9F71A828FEF8ABB87BB81BB60E875E220
:1004800080E090E00E9449000E94B6000E94A9010D
:1004900080E790E00E94C60080EC0E949200EE246B
:1004A000FF240F2EF0E7AF2EF0E0BF2EF02D8824B2
:1004B00099248FEF99EFA0E081509040A040E1F7A0
:1004C00000C000000E94E500082F89830E94B4014B
:1004D000009779F3083559F481E00E949200C50134
:1004E0000E94C60080EC0E9492007401E2CFCE010F
:1004F00001960E94C600EDE0F0E0EC0FFD1FEE0D4E
:10050000FF1D898180830894E11CF11C9AE0E916A3
:10051000F10479F681E00E9492008E01035D1F4F85
:10052000DE01DF962396BFAFAEAF23970E94B001E6
:10053000F80181938F0123968EAD9FAD2397E81725
:10054000F907A1F70F2EF1E8AF2EF0E0BF2EF02D46
:100550000F2EF2E2DF2EF02D0F2EF7E1EF2EFF240B
:10056000F02DEC0EFD1E0F2EF1E98F2EF0E09F2EE8
:10057000F02DC5010E94C6008FEF99E6A8E18150D9
:100580009040A040E1F700C000000E94B6008B81BF
:10059000882399F08E010C5F1F4F0E947F008FEF20
:1005A00090E7A2E081509040A040E1F700C0000039
:1005B000D8018D918D01882381F78DE00E947F0005
:1005C0008FEF94E3ACE081509040A040E1F700C091
:1005D00000008F89882399F08E01085E1F4F0E94CA
:1005E0007F008FEF90E7A2E081509040A040E1F7BC
:1005F00000C00000D8018D918D01882381F78DE026
:100600000E947F008FEF94E3ACE081509040A040C7
:10061000E1F700C000008AA1882399F08E010D5DEA
:100620001F4F0E947F008FEF90E7A2E08150904023
:10063000A040E1F700C00000D8018D918D01882312
:1006400081F7DCB88FEF90E7A2E081509040A040A6
:10065000E1F700C000008E01035F1F4FD8018D91AC
:100660008D010E947F008FEF90E7A2E081509040C3
:10067000A040E1F700C000000E151F0579F7DCB8B7
:100680008FEF90E7A2E081509040A040E1F700C0DA
:1006900000008DE08CB98FEF94E3ACE08150904086
:1006A000A040E1F700C000008DA5882399F08E01DD
:1006B000025D1F4F0E947F008FEF90E7A2E0815004
:1006C0009040A040E1F700C00000D8018D918D015D
:1006D000882381F78AE10E947F008FEF94E3ACE0EA
:1006E00081509040A040E1F700C00000C4010E948A
:1006F000C6008FEF99E6A8E181509040A040E1F755
:1007000000C000000E94B60034CFA1E21A2EAA1B3E
:10071000BB1BFD010DC0AA1FBB1FEE1FFF1FA217B1
:10072000B307E407F50720F0A21BB30BE40BF50BAE
:10073000661F771F881F991F1A9469F76095709537
:10074000809590959B01AC01BD01CF010895F8946F
:02075000FFCFD9
:100752003738392F343536583132332D4E303D2B20
:10076200656E74657220746865206E756D6265725F
:100772000073656E64696E67206D6573736167658A
:10078200006D6573736167652073656E74000000A8
:10079200000000000000000041542B434D47463D3D
:1007A20031000041542B434D47533D0000004E554C
:1007B2004C4C00000000000000000000000000009F
:1007C20000003738392F343536583132332D4E3018
:0207D2003D2BBD
:00000001FF
