:100000000C942A000C9447000C9447000C94470071
:100010000C9447000C9447000C9447000C94470044
:100020000C94B0000C9447000C9447000C944700CB
:100030000C9447000C9447000C9447000C94470024
:100040000C9447000C9447000C9447000C94470014
:100050000C94470011241FBECFE5D4E0DEBFCDBF16
:1000600010E0A0E6B0E0E0E3F3E002C005900D92FE
:10007000A437B107D9F710E0A4E7B0E001C01D92A2
:10008000AB37B107E1F70E943C010C9496010C9448
:1000900000008BBBA898A998AA9A8FE19EE40197CB
:1000A000F1F700C00000AA988FE19EE40197F1F7F4
:1000B00000C0000008958BBBA89AA998AA9A8FE166
:1000C0009EE40197F1F700C00000AA988FE19EE43A
:1000D0000197F1F700C00000089588E30E944900ED
:1000E0008EE00E94490080E80E94490086E00E945C
:1000F000490081E00E94490008950F931F93CF9318
:10010000DF93082F192FC0E0D0E00CC00E945B00E5
:100110002196C031D10531F480EC0E94490086E07F
:100120000E944900F80181918F01882379F7DF91BE
:10013000CF911F910F91089587B3806B87BBBE98B5
:10014000C49A81E58DB9709808958FB9779BFECFD9
:100150008FB108958FEF8FB9779BFECF8FB1089540
:100160001F920F920FB60F9211242F933F934F932C
:100170005F936F937F938F939F93AF93BF93CF932F
:10018000DF93EF93FF9388B7846088BF8BE791EE8E
:100190009DBD8CBD809176009091770001969093E3
:1001A0007700809376008C33910509F052C092B7A6
:1001B00022B781E09C3308F080E0882339F481E0A5
:1001C000253608F480E0882309F442C082B790E025
:1001D00068E770E04AE050E00E9451010E947D0013
:1001E000C49810927500109274008091600088236A
:1001F00099F0C0E6D0E00E94A50080917400909133
:100200007500019690937500809374008C0F9D1F6C
:10021000FC018081882379F7C498109275001092B0
:10022000740080917800882399F0C8E7D0E00E949C
:10023000A5008091740090917500019690937500CF
:10024000809374008C0F9D1FFC018081882379F7B7
:1002500012BEFF91EF91DF91CF91BF91AF919F912E
:100260008F917F916F915F914F913F912F910F905F
:100270000FBE0F901F9018958FEF84BB8ABB0E9412
:100280006D000E949C0012BE86E083BF8BE791EE5A
:100290009DBD8CBD789489B7846089BF85E08EBD93
:1002A000FFCFFB019F01E8944230C4F04532B4F423
:1002B0004A3029F497FB1EF4909581959F4F642F47
:1002C00077270E948201805D8A330CF0895D8193DB
:1002D000CB010097A1F716F45DE251931082C9019A
:1002E0000C947201DC01FC01672F71917723E1F717
:1002F000329704C07C916D9370836291AE17BF07F3
:10030000C8F30895AA1BBB1B51E107C0AA1FBB1F5E
:10031000A617B70710F0A61BB70B881F991F5A9591
:10032000A9F780959095BC01CD010895F894FFCF71
:1003300031204865617274205261746520697320B0
:0403400000000000B9
:00000001FF
